:100000000C9434000C9451000C9451000C94510049
:100010000C9451000C9451000C9451000C9451001C
:100020000C9451000C9451000C9451000C9451000C
:100030000C9451000C9451000C94A3000C945100AA
:100040000C9451000C9451000C9451000C945100EC
:100050000C9451000C9451000C9451000C945100DC
:100060000C9451000C94510011241FBECFEFD8E026
:10007000DEBFCDBF12E0A0E0B1E0E4E4F7E002C0F3
:1000800005900D92A437B107D9F722E0A4E7B2E0BA
:1000900001C01D92A039B207E1F70E94ED020C9455
:1000A000A0030C9400009C0140E050E060E472E486
:1000B0008FE090E00E943A03215031093093C5004F
:1000C0002093C40088E18093C10086E08093C20041
:1000D00008959091C00095FFFCCF8093C6000895CD
:1000E000CF93DF93EC0103C021960E9469008881C1
:1000F0008111FACFDF91CF910895CF93DF93CDB7E0
:10010000DEB72A970FB6F894DEBF0FBECDBF4AE028
:10011000BE016F5F7F4F0E946B03CE0101960E946C
:1001200070002A960FB6F894DEBF0FBECDBFDF91E8
:10013000CF91089582E084BD93E095BD99EF97BD7E
:1001400080936E0008951F920F920FB60F921124A4
:100150008F939F93AF93BF9380918C0290918D0268
:10016000A0918E02B0918F020196A11DB11D8093C6
:100170008C0290938D02A0938E02B0938F02BF9158
:10018000AF919F918F910F900FBE0F901F90189578
:1001900010928000E1E8F0E010828081826080832C
:1001A000089587B1816087B987B18D7F87B988B19C
:1001B0008E7F88B9089588B18E7F88B98AE08A9544
:1001C000F1F700C088B1816088B985E38A95F1F7BD
:1001D000000088B18E7F88B981E080938B02809186
:1001E0008C0290918D02A0918E02B0918F0280932B
:1001F000870290938802A0938902B0938A0208959F
:1002000080918B02813089F120F0823009F45BC04B
:10021000089580918C0290918D02A0918E02B091F0
:100220008F02409183025091840260918502709107
:100230008602841B950BA60BB70BCC97A105B105C5
:1002400008F47EC080918C0290918D02A0918E0264
:10025000B0918F028093830290938402A0938502D1
:10026000B09386020E94DB000895319B0CC0809100
:10027000840090918500909382028093810282E0B5
:1002800080938B02089580918C0290918D02A091B1
:100290008E02B0918F024091870250918802609146
:1002A000890270918A02841B950BA60BB70B4E979F
:1002B000A105B10508F444C01092800210927F029B
:1002C00010928B02089531991DC0209184003091C5
:1002D00085008091810290918202281B390BAFE941
:1002E000B6E40E945C0396958795929582958F70EF
:1002F00089279F7089279093800280937F021092B4
:100300008B02089580918C0290918D02A0918E02B3
:10031000B0918F02409187025091880260918902CA
:1003200070918A02841B950BA60BB70B4E97A10503
:10033000B10530F01092800210927F0210928B0271
:1003400008958AB18C638AB98BB1837C8BB9089587
:100350008BB1837C8BB908958BB1837C8BB98091F1
:100360007D02813051F028F0823059F0833069F0FD
:100370000FC08BB184608BB90BC08BB188608BB917
:1003800007C08BB180618BB903C08BB180628BB920
:1003900080917D028F5F80937D02843010F01092F7
:1003A0007D02089581E080937E0280918C0290917D
:1003B0008D02A0918E02B0918F028093790290936A
:1003C0007A02A0937B02B0937C0280918C02909180
:1003D0008D02A0918E02B0918F028093750290934E
:1003E0007602A0937702B093780210927D0280E0AB
:1003F00091E00E947000089580917E02882309F4A4
:100400004CC080918C0290918D02A0918E02B0918F
:100410008F024091790250917A0260917B02709133
:100420007C02841B950BA60BB70B80339547A10567
:10043000B10548F00E94A80110927E0284E191E08B
:100440000E947000089580918C0290918D02A0917D
:100450008E02B0918F0240917502509176026091A8
:10046000770270917802841B950BA60BB70B0A9745
:10047000A105B10590F080918C0290918D02A09120
:100480008E02B0918F028093750290937602A093B2
:100490007702B09378020E94AC01089580917F02A8
:1004A00090918002892BF1F080917F0290918002DF
:1004B0000B97C0F480917E02811114C088E291E014
:1004C0000E94700089E391E00E94700080917F0299
:1004D000909180020E947D0085ED91E00E94700065
:1004E0000E94D2010895880F8093BA0084EC809313
:1004F000BC0008951F93CF93DF9300D000D01F92CC
:10050000CDB7DEB78091BC0088230CF05DC01091A0
:10051000B900187F103AE9F128F4103651F010387C
:1005200061F03BC0183BC9F0103C79F1183AA9F5CD
:1005300008C084EC8093BC0047C084EC8093BC006E
:1005400043C01092740280917F0290918002809348
:10055000BB0084EC8093BC0037C0809174028F5F35
:1005600080937402813039F480917F0290918002EF
:100570009093BB0006C0823021F480917E0280936C
:10058000BB0084EC8093BC001FC084EC8093BC0053
:100590001BC084EC8093BC0017C086E491E00E94ED
:1005A000700040E1BE016F5F7F4F812F90E00E949D
:1005B0006B03CE0101960E94700081E792E00E94D9
:1005C000700084EC8093BC000F900F900F900F9000
:1005D0000F90DF91CF911F91089580E895E20E94DE
:1005E00053000E94D1000E94A1010E949A000E9423
:1005F000C80088E00E947302789481E792E00E942C
:10060000700086E591E00E94700089E791E00E9409
:10061000700086E591E00E9470008FE891E00E94F2
:1006200070008CE991E00E94700082EB91E00E94E2
:1006300070008AEC91E00E9470008BED91E00E94C6
:10064000700089EF91E00E94700082E192E00E94C8
:10065000700087E392E00E9470008FE492E00E94B5
:1006600070000E9400010E944E020E94FC010E9444
:100670007A02F7CFA1E21A2EAA1BBB1BFD010DC007
:10068000AA1FBB1FEE1FFF1FA217B307E407F50742
:1006900020F0A21BB30BE40BF50B661F771F881F1E
:1006A000991F1A9469F760957095809590959B01B4
:1006B000AC01BD01CF010895A29FB001B39FC0015D
:1006C000A39F700D811D1124911DB29F700D811D7E
:1006D0001124911D0895BB274A3031F4992322F447
:1006E000BDE2909581959F4F0C947703BB27FB014A
:1006F0005527AA27880F991FAA1FA41710F0A41B1B
:1007000083955051B9F7A05DAA3308F0A95DA19374
:10071000009779F7B111B1931192CB010C9490032A
:10072000DC01FC01672F71917723E1F7329704C058
:100730007C916D9370836291AE17BF07C8F30895E3
:04074000F894FFCF5B
:1007440053544550504552202D3E20494E4943496B
:100754004F0D0A0053544550504552202D3E20461B
:10076400494E2036730D0A00554D4252414C203CEF
:100774003D203130636D0D0A0044697374616E630A
:100784006961203D20004932432065737461646FC0
:10079400203D203078003D3D3D3D3D3D3D3D3D3DCE
:1007A4003D3D3D3D3D3D3D3D3D3D3D3D3D3D3D3D75
:1007B4003D3D3D3D3D3D0D0A0020202020202020D0
:1007C4002020204553434C41564F20310D0A004907
:1007D4003243203D20307830380D0A00556C747255
:1007E40061736F6E69646F203D2041302F41310D7C
:1007F4000A0053746570706572203D2044322F44A2
:10080400332F44342F44350D0A00556D6272616CE8
:10081400203D20313020636D0D0A005469656D70F0
:100824006F2073746570706572203D203620736587
:1008340067756E646F730D0A0056656C6F63696447
:100844006164203D203130206D732F666173650D26
:100854000A0053656E7469646F203D20494E34204C
:100864002D3E20494E33202D3E20494E32202D3E30
:1008740020494E310D0A0053697374656D61204E31
:100884004F20424C4F515545414E54450D0A003DB1
:100894003D3D3D3D3D3D3D3D3D3D3D3D3D3D3D3D84
:1008A4003D3D3D3D3D3D3D3D3D3D3D3D3D3D3D0DA4
:0408B4000A0D0A001F
:00000001FF
