S01000004D41455354524F5F2E737265639A
S11300000C9434000C9451000C9451000C94510045
S11300100C9451000C9451000C9451000C94510018
S11300200C9451000C9451000C9451000C94510008
S11300300C9451000C9451000C9451000C945100F8
S11300400C9451000C9451000C9451000C945100E8
S11300500C9451000C9451000C9451000C945100D8
S11300600C9451000C94510011241FBECFEFD8E022
S1130070DEBFCDBF14E0A0E0B1E0ECE8F2E102C0E5
S113008005900D92AE3AB107D9F724E0AEEAB4E098
S113009001C01D92A93BB207E1F70E945A040C94D7
S11300A044090C9400008BB188608BB985E08A9573
S11300B0F1F700008BB1877F8BB98FE891E001974E
S11300C0F1F700C000000895662321F09BB194600D
S11300D09BB903C09BB19B7F9BB980FF04C09BB1BC
S11300E090619BB903C09BB19F7E9BB981FF04C003
S11300F09BB190629BB903C09BB19F7D9BB982FF6A
S113010004C09BB190649BB903C09BB19F7B9BB916
S113011083FF04C09BB190689BB903C09BB19F77D8
S11301209BB984FF04C095B1916095B903C095B1A2
S11301309E7F95B985FF04C095B1926095B903C0BF
S113014095B19D7F95B986FF04C095B1946095B92A
S113015003C095B19B7F95B9882324F485B1886049
S113016085B903C085B1877F85B90E94530008957E
S1130170CF93C82F60E00E946400C150C23038F4AD
S11301808FE39FE10197F1F700C0000006C087EC00
S113019090E00197F1F700C00000CF91089561E06D
S11301A00E94640087EC90E00197F1F700C0000022
S11301B0089581E00E94B80008956111805C806810
S11301C00E94B8000895CF93DF93EC0103C00E940E
S11301D0CF00219688818111FACFDF91CF910895C4
S11301E08AB184608AB98AB188608AB98AB1806127
S11301F08AB98AB180628AB98AB180648AB98AB1BB
S113020080688AB984B1816084B984B1826084B918
S113021084B1846084B984B1886084B98BB1877FE8
S11302208BB92FEF89EF90E0215080409040E1F7A7
S113023000C0000060E080E30E9464008FE19EE45F
S11302400197F1F700C0000060E080E30E946400C1
S113025087E592E00197F1F700C0000060E080E3D9
S11302600E94640087E592E00197F1F700C0000066
S113027088E30E94B8008CE00E94B80081E00E94EC
S1130280B80086E00E94B8000895CF93DF93D82F7A
S1130290C0E004C080E20E94CF00CF5FCD17D0F34E
S11302A0DF91CF9108959C0140E050E060E472E456
S11302B08FE090E00E940306215031093093C5007D
S11302C02093C40088E18093C10086E08093C2003B
S11302D008959091C00095FFFCCF8093C6000895C7
S11302E0CF93DF93EC0103C021960E9469018881BA
S11302F08111FACFDF91CF910895CF93DF93CDB7DA
S1130300DEB72A970FB6F894DEBF0FBECDBF4AE022
S1130310BE016F5F7F4F0E942506CE0101960E94A9
S113032070012A960FB6F894DEBF0FBECDBFDF91E1
S1130330CF9108951092B90088E48093B80084E0C6
S11303408093BC00089584EA8093BC008091BC0033
S11303508823E4F78091B900887F089584E9809325
S1130360BC008FE891E00197F1F700C00000089508
S11303708091B900887F08958093BB0084E88093BE
S1130380BC008091BC008823E4F78091B900887F89
S1130390089584EC8093BC008091BC008823E4F72A
S11303A08091BB00089584E88093BC008091BC00D8
S11303B08823E4F78091BB000895EF92FF920F9396
S11303C01F93CF93DF938C01EB010E94A30188302C
S11303D0F1F481E10E94BC01803421F00E94AE015D
S11303E080E016C00E94C901E82E0E94C901F82EBF
S11303F00E94D3012F2D30E0322F22272E29F8011D
S11304003183208388830E94AE0181E001C080E0B3
S1130410DF91CF911F910F91FF90EF900895FF927C
S11304200F931F93CF93DF938C01EB010E94A301E1
S11304308830A9F483E10E94BC01803421F00E9439
S1130440AE0180E00DC00E94C901F82E0E94D301C4
S1130450F801F08288830E94AE0181E001C080E04F
S1130460DF91CF911F910F91FF900895CF93DF9368
S11304700E94A3010E94B801883069F00E94B8016B
S1130480803149F00E94AE0180E091E00E94700149
S113049089E19CEF4DC080E90E94BC010E94B80133
S11304A0883149F00E94AE0184E191E00E9470011C
S11304B089E19CEF3DC080E00E94BC010E94B8012C
S11304C0883249F00E94AE0188E291E00E947001F6
S11304D089E19CEF2DC00E94A3010E94B8018031E4
S11304E049F00E94AE018FE391E00E94700189E11E
S11304F09CEF1EC081E90E94BC010E94B8018034B7
S113050049F00E94AE0185E591E00E94700189E105
S11305109CEF0EC00E94C901C82F0E94D301D82F9E
S11305200E94AE018C2F880F990BDD230CF40196E9
S1130530DF91CF91089588B18D7F88B988B18B7F81
S113054088B9089588B1826088B988B18B7F88B9E9
S1130550089588B18D7F88B988B1846088B9089579
S1130560EF92FF920F931F93CF93DF93CDB7DEB734
S113057061970FB6F894DEBF0FBECDBF8C01F62E87
S1130580E42E60E080E00E94DD00FF2009F469C0F1
S1130590112384F1C80111230CF4019695958795D4
S11305A000FF14C099279F938F938AEC91E09F9347
S11305B08F93CE0101969F938F930E944A060F90CA
S11305C00F900F900F900F900F9046C099279F9314
S11305D08F9382ED91E09F938F93CE0101969F9329
S11305E08F930E944A060F900F900F900F900F90D8
S11305F00F9032C022273327201B310BC9010AF484
S113060001969595879520FF14C099279F938F9302
S11306108AED91E09F938F93CE0101969F938F93E0
S11306200E944A060F900F900F900F900F900F901A
S113063013C099279F938F9383EE91E09F938F9399
S1130640CE0101969F938F930E944A060F900F90BC
S11306500F900F900F900F90CE0101960E94E3002F
S113066004C08CEE91E00E94E30060E088E00E9408
S1130670DD0084EF91E00E94E300E11005C087EF04
S113068091E00E94E30004C08BEF91E00E94E3003C
S113069085E00E94450161E080E00E94DD00FF20CA
S11306A0A9F00D3311052CF08FEF91E00E94E300C7
S11306B011C00C3311052CF489E092E00E94E30090
S11306C009C083E192E00E94E30004C08BE192E060
S11306D00E94E30087E00E94450161960FB6F894FA
S11306E0DEBF0FBECDBFDF91CF911F910F91FF9061
S11306F0EF9008950F931F93CF93DF93CDB7DEB799
S113070061970FB6F894DEBF0FBECDBF60E080E006
S11307100E94DD008091B3048823D9F08091B8044D
S11307208F938091B7048F9383E292E09F938F938A
S11307308E010F5F1F4F1F930F930E944A06C8013B
S11307400E94E3000F900F900F900F900F900F9066
S113075004C08AE292E00E94E30088E00E9445011E
S113076061E080E00E94DD008091B304882391F071
S113077083E392E00E94E3008091B604882329F089
S113078087E392E00E94E30009C087EF91E00E94B2
S1130790E30004C08AE392E00E94E3008CE00E943C
S11307A0450161960FB6F894DEBF0FBECDBFDF9151
S11307B0CF911F910F9108950F931F93CF93DF93C0
S11307C0CDB7DEB761970FB6F894DEBF0FBECDBFCD
S11307D060E080E00E94DD008091B204882391F003
S11307E08FE392E00E94E3008091B504882329F00E
S11307F083E492E00E94E30009C086E492E00E9450
S1130800E30004C089E492E00E94E3008CE00E94CB
S1130810450161E080E00E94DD008091B2048823FC
S1130820E9F08091B4041F928F938EE492E09F9339
S11308308F938E010F5F1F4F1F930F930E944A06E1
S1130840C8010E94E30086E592E00E94E3000F9055
S11308500F900F900F900F900F9004C08EE592E0D0
S11308600E94E3008AE00E94450161960FB6F89465
S1130870DEBF0FBECDBFDF91CF911F910F910895C1
S11308809C019091B004911104C0C9010E94B0026E
S113089007C0913019F40E947A0302C00E94DC035D
S11308A08091B0048F5F8093B004833010F0109275
S11308B0B004089580E895E20E9453010E949A01D1
S11308C00E94F0000E94D90087B1866087B90E9417
S11308D09B028CEF92E00E94700183E692E00E94FA
S11308E0700186E892E00E94700183E692E00E9423
S11308F070018CE992E00E94700182EB92E00E9408
S113090070018EEB92E00E9470018AEC92E00E94EA
S113091070018AED92E00E94700185E692E00E94E7
S113092070018FEF92E00E94700185E692E00E94D0
S1130930700189E193E00E94700187E293E00E94D4
S1130940700182E393E00E9470018DE393E00E94C2
S113095070018FE493E00E94700181E693E00E94AD
S113096070018EE190E00E947D018BE693E00E948D
S1130970700185E692E00E947001F12C8091AE0432
S11309809091AF04843F914008F42DC11092AF04BC
S11309901092AE0466EB74E087EB94E00E94DD01F4
S11309A0882339F181E08093B30480E793E00E94C7
S11309B070018091B7049091B8040E947D0182E88F
S11309C093E00E94700186E893E00E947001809198
S11309D0B604882329F087E392E00E94700104C0E2
S11309E087EF91E00E9470018CEF92E00E94700109
S11309F006C01092B30483E993E00E94700164EB93
S1130A0074E085EB94E00E940F02882311F181E0E9
S1130A108093B2048FEA93E00E9470018091B50440
S1130A20882329F083E492E00E94700104C086E4E4
S1130A3092E00E9470018EEB93E00E94700180911D
S1130A40B40490E00E947D0189EC93E00E9470015F
S1130A5006C01092B20483ED93E00E9470010E94DC
S1130A603602EC01C9318CEFD807B9F41092B10405
S1130A708FEE93E00E9470010E949B024F2D60E074
S1130A80CE010E94B0029FEF23ED80E391502040FD
S1130A908040E1F700C0000071CF81E08093B10491
S1130AA08E01DD2314F40F5F1F4F159507958DE01C
S1130AB094E00E947001DD23DCF4CC24DD24CC1A04
S1130AC0DD0A8DE20E946901C601DD200CF4019665
S1130AD0959587950E947D01C0FE05C08BE194E049
S1130AE00E94700113C08EE194E00E9470010EC058
S1130AF0C8010E947D01C0FF05C08BE194E00E9403
S1130B00700104C08EE194E00E94700181E294E0DF
S1130B100E9470010F31110544F18FEF91E00E94A2
S1130B207001F1101DC087E294E00E9470010E94E0
S1130B30A20241E061E0CE010E94B0022FEF8FE4F7
S1130B4093EC215080409040E1F700C000000E94E7
S1130B509B028CE891E00E947001FF24F39434C05E
S1130B6080E494E00E9470012FC00E31110544F519
S1130B7089E092E00E94700121E0F2121CC08DE530
S1130B8094E00E9470010E94A90240E061E0CE015D
S1130B900E94B0028FEF9FE423EC815090402040EC
S1130BA0E1F700C000000E949B028CE891E00E94E3
S1130BB07001F12C09C089E794E00E94700104C01F
S1130BC087E994E00E9470014F2D6091B104CE0139
S1130BD00E9440048FEF99E628E181509040204024
S1130BE0E1F700C000008FE99FE00197F1F700C032
S1130BF000008091AE049091AF0401969093AF04ED
S1130C008093AE04BBCEA1E21A2EAA1BBB1BFD012E
S1130C100DC0AA1FBB1FEE1FFF1FA217B307E407D7
S1130C20F50720F0A21BB30BE40BF50B661F771F2F
S1130C30881F991F1A9469F760957095809590950F
S1130C409B01AC01BD01CF010895BB274A3031F4AB
S1130C50992322F4BDE2909581959F4F0C9431061F
S1130C60BB27FB015527AA27880F991FAA1FA41782
S1130C7010F0A41B83955051B9F7A05DAA3308F076
S1130C80A95DA193009779F7B111B1931192CB01AA
S1130C900C946308AEE0B0E0E0E5F6E00C941B09C8
S1130CA00D891E8986E08C831A8309838FEF9FE761
S1130CB09E838D83AE01475E5F4F6F89788DCE0131
S1130CC001960E946C06EF81F885E00FF11F1082F7
S1130CD02E96E4E00C943709ABE0B0E0E2E7F6E0EE
S1130CE00C940D096C017B018A01FC0117821682A8
S1130CF0838181FFCCC1CE0101963C01F601938131
S1130D00F70193FD859193FF81917F01882309F475
S1130D10BAC1853239F493FD859193FF81917F01A6
S1130D20853229F4B60190E00E947308E7CF912C34
S1130D30212C312CFFE1F315D8F08B3279F038F403
S1130D40803279F08332A1F4232D20611DC08D32CD
S1130D5061F0803369F4232D216016C0832D8260F5
S1130D60382EE32DE4603E2E2AC0F32DF8601DC01A
S1130D7037FC2DC020ED280F2A3040F08E32B9F414
S1130D8036FC81C1232D2064322E19C036FE06C0E4
S1130D908AE0989E200D1124922E11C0EAE02E9E26
S1130DA0200D1124222EF32DF0623F2E08C08C3624
S1130DB021F4832D8068382E02C0883641F4F7016F
S1130DC093FD859193FF81917F018111B3CF982F7A
S1130DD09F7D9554933028F40C5F1F4F9FE39983B4
S1130DE00DC0833631F0833771F0833509F059C073
S1130DF021C0F801808189830E5F1F4F882483946A
S1130E00912C530113C02801F2E04F0E511CF8013C
S1130E10A080B18036FE03C0692D70E002C06FEF80
S1130E207FEFC5010E9458084C018201F32DFF7722
S1130E303F2E16C0280122E0420E511CF801A0806A
S1130E40B18036FE03C0692D70E002C06FEF7FEF02
S1130E50C5010E944D084C01F32DF0683F2E82011C
S1130E6033FC1BC0822D90E088169906B0F4B601BD
S1130E7080E290E00E9473082A94F4CFF50137FCD5
S1130E80859137FE81915F01B60190E00E9473085D
S1130E9021102A9421E0821A91088114910471F797
S1130EA0E8C0843611F0893641F5F80137FE07C0F1
S1130EB060817181828193810C5F1F4F08C06081C2
S1130EC07181072E000C880B990B0E5F1F4FF32DB9
S1130ED0FF763F2E97FF09C0909580957095619598
S1130EE07F4F8F4F9F4FF0683F2E2AE030E0A301E1
S1130EF00E94AF08882E861845C0853731F4232D0B
S1130F002F7EB22E2AE030E025C0932D997FB92E92
S1130F108F36C1F018F4883579F0B5C0803719F0F0
S1130F20883721F0B0C0E92FE061BE2EB4FE0DC0B9
S1130F30FB2DF460BF2E09C034FE0AC0292F2660A1
S1130F40B22E06C028E030E005C020E130E002C047
S1130F5020E132E0F801B7FE07C06081718182812F
S1130F6093810C5F1F4F06C06081718180E090E027
S1130F700E5F1F4FA3010E94AF08882E8618FB2D19
S1130F80FF773F2E36FE0DC0232D2E7FA22E89140F
S1130F9058F434FE0BC032FC09C0832D8E7EA82E7B
S1130FA005C0B82CA32C03C0B82C01C0B92CA4FED6
S1130FB00FC0FE01E80DF11D8081803321F49A2DCC
S1130FC0997EA92E09C0A2FE06C0B394B39404C0AE
S1130FD08A2D867809F0B394A3FC11C0A0FE06C044
S1130FE0B21488F4280C922C9B180EC0B21460F42E
S1130FF0B60180E290E00E947308B394F7CFB21474
S113100018F42B1802C0982C212CA4FE10C0B60191
S113101080E390E00E947308A2FE17C0A1FC03C005
S113102088E790E002C088E590E0B6010CC08A2D04
S1131030867859F0A1FE02C08BE201C080E2A7FCD1
S11310408DE2B60190E00E947308891438F4B60169
S113105080E390E00E9473089A94F7CF8A94F30196
S1131060E80DF11D8081B60190E00E9473088110A3
S1131070F5CF222009F442CEB60180E290E00E942E
S113108073082A94F6CFF6018681978102C08FEF08
S11310909FEF2B96E2E10C942909FC010590615025
S11310A070400110D8F7809590958E0F9F1F08957A
S11310B0FC016150704001900110D8F78095909523
S11310C08E0F9F1F0895DC01FC01672F7191772318
S11310D0E1F7329704C07C916D9370836291AE17EF
S11310E0BF07C8F308950F931F93CF93DF93FB01BA
S11310F0238121FD03C08FEF9FEF2CC022FF16C078
S113110046815781248135814217530744F4A081D5
S1131110B1819D012F5F3F4F318320838C932681C2
S113112037812F5F3F4F3783268314C08B01EC0137
S1131130FB010084F185E02D0995892BE1F6D801A6
S113114016968D919C911797019617969C938E9362
S11311501697CE01DF91CF911F910F910895FA0157
S1131160AA27283051F1203181F1E8946F936E7FE2
S11311706E5F7F4F8F4F9F4FAF4FB1E03ED0B4E0D3
S11311803CD0670F781F891F9A1FA11D680F791F14
S11311908A1F911DA11D6A0F711D811D911DA11D25
S11311A020D009F468943F912AE0269F1124301935
S11311B0305D3193DEF6CF010895462F4770405DD0
S11311C04193B3E00FD0C9F7F6CF462F4F70405D7F
S11311D04A3318F0495D31FD4052419302D0A9F7DA
S11311E0EACFB4E0A6959795879577956795BA95D4
S11311F0C9F700976105710508959B01AC010A2E9A
S113120006945795479537952795BA95C9F7620F70
S1131210731F841F951FA01D08952F923F924F9214
S11312205F926F927F928F929F92AF92BF92CF9272
S1131230DF92EF92FF920F931F93CF93DF93CDB77B
S1131240DEB7CA1BDB0B0FB6F894DEBF0FBECDBFF3
S113125009942A88398848885F846E847D848C84C4
S11312609B84AA84B984C884DF80EE80FD800C81CD
S11312701B81AA81B981CE0FD11D0FB6F894DEBFB0
S10F12800FBECDBFED010895F894FFCF20
S113128C4552524F52204C4D37353A20535441520B
S113129C540D0A004552524F52204C4D37353A20CA
S11312AC534C412B570D0A004552524F52204C4D72
S11312BC37353A20726567697374726F0D0A00458D
S11312CC52524F52204C4D37353A205245535441CB
S11312DC52540D0A004552524F52204C4D37353A58
S11312EC20534C412B520D0A004D4F544F52204465
S11312FC43202D3E204156414E5A414E444F2034FA
S113130C20736567756E646F730D0A004D4F544FEF
S113131C52204443202D3E20444554454E49444FCD
S113132C0D0A004D4F544F52204443202D3E205261
S113133C4554524F43454449454E444F2034207341
S113134C6567756E646F730D0A00543A25752E35F6
S113135C4300543A25752E304300543A2D25752EEE
S113136C354300543A2D25752E304300543A5858C1
S113137C2E5843004D3A004F464600415620005427
S113138C454D5020414C54410054454D5020424150
S113139C4A410054454D50204F4B0054454D503A52
S11313AC205800443A2575636D00443A58585858EF
S11313BC636D0053543A004F4E0053543A58004C4A
S11313CC4C3A005349004E4F004C4C3A580053567B
S11313DC3A253033750020677261646F730053567D
S11313EC3A58003D3D3D3D3D3D3D3D3D3D3D3D3D42
S11313FC3D3D3D3D3D3D3D3D3D3D3D3D3D3D3D3D0D
S113140C3D3D3D0D0A00202020202020204E414E41
S113141C4F204D41455354524F0D0A00493243203D
S113142C4D415354455220696E69636961646F0D73
S113143C0A005331203D20307830380D0A005332E5
S113144C203D20307830390D0A0053434C203D2088
S113145C313030206B487A0D0A003D3D3D3D3D3D19
S113146C3D3D3D3D3D3D3D3D3D3D3D3D3D3D3D3D9C
S113147C3D3D3D3D3D3D3D3D3D3D0D0A0D0A004D7F
S113148C41455354524F204C4D3735202B204D4F52
S113149C544F522044430D0A004C4D3735203D2007
S11314AC307834380D0A00534441203D2041340D2A
S11314BC0A0053434C203D2041350D0A004D6F74F6
S11314CC6F7220494E31203D205043310D0A004D9E
S11314DC6F746F7220494E32203D205043320D0AF6
S11314EC00556D6272616C203D200020430D0A0092
S11314FC5331202D3E2044697374616E6369613AE3
S113150C200020636D00207C20537465707065721C
S113151C3A20004552524F523A206E6F2073652088
S113152C7075646F206C6565722053310D0A00531D
S113153C32202D3E204C6C757669613A2000207C5B
S113154C20536572766F3A200020677261646F7362
S113155C0D0A004552524F523A206E6F207365208B
S113156C7075646F206C6565722053320D0A0045EA
S113157C52524F523A206E6F207365207075646F0F
S113158C206C656572204C4D37350D0A0054656D21
S113159C70657261747572613A20002E35002E30BC
S11315AC002043207C2000202D3E20736520726592
S11315BC717569657265204156414E43450D0A00AB
S11315CC202D3E206D6F746F7220796120657374C9
S11315DC61206176616E7A61646F0D0A00202D3E84
S11315EC2073652072657175696572652052455466
S11315FC524F4345534F0D0A00202D3E206D6F74FE
S113160C6F72207961206573746120656E20726538
S113161C706F736F0D0A0054454D50204947554166
S111162C4C20414C20554D4252414C0D0A00B9
S9030000FC
