:100000000C94B1000C94CE000C94CE000C94CE0055
:100010000C94CE000C94CE000C94CE000C94CE0028
:100020000C94CE000C94CE000C94CE000C94CE0018
:100030000C94CE000C94CE000C94CE000C94CE0008
:100040000C94CE000C94CE000C94B8020C94CE000C
:100050000C94CE000C94CE000C94CE000C94CE00E8
:100060000C94CE000C94CE0000407A10F35A00A0FD
:10007000724E18090010A5D4E80000E87648170071
:1000800000E40B54020000CA9A3B000000E1F505B1
:10009000000080969800000040420F000000A086FB
:1000A00001000000102700000000E803000000002D
:1000B0006400000000000A000000000001000000D1
:1000C00000002C76D888DC674F0823DFC1DFAE59EB
:1000D000E1B1B796E5E3E453C63AE651997696E87E
:1000E000E6C28426EB898C9B62ED407C6FFCEFBC02
:1000F0009C9F40F2BAA56FA5F490055A2AF75C932D
:100100006B6CF9676DC11BFCE0E40D47FEF520E662
:10011000B500D0ED902E0300943577050080841E45
:10012000080000204E0A000000C80C333333330FA0
:10013000986E12831141EF8D2114893BE65516CF3D
:10014000FEE6DB18D1844B381BF77C1D901DA4BB49
:10015000E424203284725E228100C9F124ECA1E5FE
:100160003D2711241FBECFEFD8E0DEBFCDBF11E089
:10017000A0E0B1E0ECEEF2E102C005900D92AC32ED
:10018000B107D9F721E0ACE2B1E001C01D92A03384
:10019000B207E1F70E94DE010C9474090C94000090
:1001A00080E480937C0087E880937A000895ECE7F0
:1001B000F0E09081907F8F70892B8083EAE7F0E0F8
:1001C00080818064808380917A0086FDFCCF80915D
:1001D00078009091790008958BB188608BB985E0A3
:1001E0008A95F1F700008BB1877F8BB98FE891E09A
:1001F0000197F1F700C000000895662321F09BB13C
:1002000094609BB903C09BB19B7F9BB980FF04C0E6
:100210009BB190619BB903C09BB19F7E9BB981FF4D
:1002200004C09BB190629BB903C09BB19F7D9BB9F9
:1002300082FF04C09BB190649BB903C09BB19F7BBC
:100240009BB983FF04C09BB190689BB903C09BB16D
:100250009F779BB984FF04C095B1916095B903C0A5
:1002600095B19E7F95B985FF04C095B1926095B90F
:1002700003C095B19D7F95B986FF04C095B1946088
:1002800095B903C095B19B7F95B9882324F485B1B6
:10029000886085B903C085B1877F85B90E94EC006D
:1002A0000895CF93C82F60E00E94FD00C150C23076
:1002B00038F48FE39FE10197F1F700C0000006C01A
:1002C00087EC90E00197F1F700C00000CF9108950E
:1002D00061E00E94FD0087EC90E00197F1F700C01B
:1002E0000000089581E00E94510108956111805C31
:1002F00080680E9451010895CF93DF93EC0103C001
:100300000E946801219688818111FACFDF91CF91F7
:1003100008958AB184608AB98AB188608AB98AB13D
:1003200080618AB98AB180628AB98AB180648AB9E7
:100330008AB180688AB984B1816084B984B18260ED
:1003400084B984B1846084B984B1886084B98BB184
:10035000877F8BB92FEF89EF90E02150804090404C
:10036000E1F700C0000060E080E30E94FD008FE143
:100370009EE40197F1F700C0000060E080E30E9476
:10038000FD0087E592E00197F1F700C0000060E012
:1003900080E30E94FD0087E592E00197F1F700C03D
:1003A000000088E30E9451018CE00E94510181E02D
:1003B0000E94510186E00E9451010895CF93DF937E
:1003C000CDB7DEB7C154D1090FB6F894DEBF0FBE6A
:1003D000CDBF0E9489010E94D0000E9498027894AB
:1003E0000E94720180E00E94D700BC0180E090E092
:1003F0000E943D0320E030E040EA50E40E94CB033D
:1004000020E030EC4FE754E40E94CB024B015C014A
:1004100081E00E94D700D82EC92E80912E0188231A
:10042000E9F010922E0180912F018B3251F48091CE
:100430002C0190912D01019690932D0180932C0118
:100440000DC080912F018D3249F480912C01909143
:100450002D01019790932D0180932C017E0122E1C3
:10046000E20EF11C870122E044E0C501B4010E94C4
:10047000380480912C0190912D019F938F93CF92FE
:10048000DF92FF92EF9280E091E09F938F93085F5D
:100490001F4F1F930F930E945804C8010E94AB0284
:1004A000FF92EF9285E191E09F938F93095111099B
:1004B0001F930F930E94580460E080E00E94760131
:1004C000C8010E947C01CF92DF928CE191E09F9362
:1004D0008F931F930F930E94580460E088E00E945E
:1004E0007601C8010E947C0180912C0190912D0120
:1004F0009F938F9384E291E09F938F931F930F9329
:100500000E94580461E080E00E947601C8010E94C8
:100510007C018FEF93EC29E0815090402040E1F77F
:1005200000C000000FB6F894DEBF0FBECDBF5ACF9B
:100530001092C50087E68093C40088E98093C100CB
:1005400086E08093C20008959091C00095FFFCCF93
:100550008093C6000895CF93DF93EC0103C00E94FF
:10056000A402219688818111FACFDF91CF9108955D
:100570001F920F920FB60F9211248F938091C60095
:1005800080932F0181E080932E018F910F900FBEF9
:100590000F901F9018950E94DF020C9491030E9407
:1005A0008A0358F00E94830340F029F45F3F29F04A
:1005B0000C947A0351110C94C5030C9480030E948F
:1005C000A20368F39923B1F3552391F3951B550BBF
:1005D000BB27AA2762177307840738F09F5F5F4F16
:1005E000220F331F441FAA1FA9F335D00E2E3AF055
:1005F000E0E832D091505040E695001CCAF72BD06D
:10060000FE2F29D0660F771F881FBB1F26173707BD
:100610004807AB07B0E809F0BB0B802DBF01FF27EF
:1006200093585F4F3AF09E3F510578F00C947A034F
:100630000C94C5035F3FE4F3983ED4F38695779519
:100640006795B795F7959F5FC9F7880F911D9695A8
:10065000879597F90895E1E0660F771F881FBB1F04
:10066000621773078407BA0720F0621B730B840BB1
:10067000BA0BEE1F88F7E0950895E89409C097FB40
:100680003EF490958095709561957F4F8F4F9F4F69
:100690009923A9F0F92F96E9BB279395F6958795AD
:1006A00077956795B795F111F8CFFAF4BB0F11F470
:1006B00060FF1BC06F5F7F4F8F4F9F4F16C0882317
:1006C00011F096E911C0772321F09EE8872F762F4D
:1006D00005C0662371F096E8862F70E060E02AF08E
:1006E0009A95660F771F881FDAF7880F969587957A
:1006F00097F9089597F99F6780E870E060E00895A2
:100700009FEF80EC089500240A9416161706180629
:100710000906089500240A94121613061406050605
:100720000895092E0394000C11F4882352F0BB0F96
:1007300040F4BF2B11F460FF04C06F5F7F4F8F4FF9
:100740009F4F089557FD9058440F551F59F05F3F34
:1007500071F04795880F97FB991F61F09F3F79F0E3
:1007600087950895121613061406551FF2CF469565
:10077000F1DF08C0161617061806991FF1CF8695E7
:100780007105610508940895E894BB2766277727CB
:10079000CB0197F908950E94DE030C9491030E9407
:1007A000830338F00E948A0320F0952311F00C9403
:1007B0007A030C94800311240C94C5030E94A203B5
:1007C00070F3959FC1F3950F50E0551F629FF001A4
:1007D000729FBB27F00DB11D639FAA27F00DB11DBD
:1007E000AA1F649F6627B00DA11D661F829F222746
:1007F000B00DA11D621F739FB00DA11D621F839FCD
:10080000A00D611D221F749F3327A00D611D231FA2
:10081000849F600D211D822F762F6A2F11249F57F0
:1008200050409AF0F1F088234AF0EE0FFF1FBB1FF3
:10083000661F771F881F91505040A9F79E3F5105B2
:1008400080F00C947A030C94C5035F3FE4F3983E68
:10085000D4F3869577956795B795F795E7959F5F5C
:10086000C1F7FE2B880F911D9695879597F90895EE
:10087000EF920F931F93CF93DF93E80147FD02C0E0
:1008800034E001C034E1042E000C550B57FF03C0C7
:10089000519541955109E32E022F242FAE010E945C
:1008A0005B06CE01DF91CF911F910F91EF900895DC
:1008B000AEE0B0E0EEE5F4E00C944B090D891E8942
:1008C00086E08C831A8309838FEF9FE79E838D8355
:1008D000AE01475E5F4F6F89788DCE0101960E9411
:1008E0007A04EF81F885E00FF11F10822E96E4E084
:1008F0000C946709ABE0B0E0E0E8F4E00C943D094B
:100900006C017B018A01FC0117821682838181FFC1
:10091000CCC1CE0101963C01F6019381F70193FD14
:10092000859193FF81917F01882309F4BAC18532B3
:1009300039F493FD859193FF81917F01853229F4EC
:10094000B60190E00E94A308E7CF912C212C312C16
:10095000FFE1F315D8F08B3279F038F4803279F07A
:100960008332A1F4232D20611DC08D3261F08033CC
:1009700069F4232D216016C0832D8260382EE32D6B
:10098000E4603E2E2AC0F32DF8601DC037FC2DC058
:1009900020ED280F2A3040F08E32B9F436FC81C1A8
:1009A000232D2064322E19C036FE06C08AE0989EA0
:1009B000200D1124922E11C0EAE02E9E200D11244C
:1009C000222EF32DF0623F2E08C08C3621F4832DA9
:1009D0008068382E02C0883641F4F70193FD859176
:1009E00093FF81917F018111B3CF982F9F7D955403
:1009F000933028F40C5F1F4F9FE399830DC083361B
:100A000031F0833771F0833509F059C021C0F80106
:100A1000808189830E5F1F4F88248394912C53011A
:100A200013C02801F2E04F0E511CF801A080B180E4
:100A300036FE03C0692D70E002C06FEF7FEFC50185
:100A40000E9498084C018201F32DFF773F2E16C0BB
:100A5000280122E0420E511CF801A080B18036FE30
:100A600003C0692D70E002C06FEF7FEFC5010E94E7
:100A70008D084C01F32DF0683F2E820133FC1BC022
:100A8000822D90E088169906B0F4B60180E290E0DD
:100A90000E94A3082A94F4CFF50137FC859137FE14
:100AA00081915F01B60190E00E94A30821102A9471
:100AB00021E0821A91088114910471F7E8C084360C
:100AC00011F0893641F5F80137FE07C06081718168
:100AD000828193810C5F1F4F08C060817181072E56
:100AE000000C880B990B0E5F1F4FF32DFF763F2EE6
:100AF00097FF09C090958095709561957F4F8F4FB6
:100B00009F4FF0683F2E2AE030E0A3010E94DF08EB
:100B1000882E861845C0853731F4232D2F7EB22EBE
:100B20002AE030E025C0932D997FB92E8F36C1F091
:100B300018F4883579F0B5C0803719F0883721F07E
:100B4000B0C0E92FE061BE2EB4FE0DC0FB2DF460F5
:100B5000BF2E09C034FE0AC0292F2660B22E06C05F
:100B600028E030E005C020E130E002C020E132E0C2
:100B7000F801B7FE07C060817181828193810C5FAB
:100B80001F4F06C06081718180E090E00E5F1F4FB3
:100B9000A3010E94DF08882E8618FB2DFF773F2EC9
:100BA00036FE0DC0232D2E7FA22E891458F434FE5C
:100BB0000BC032FC09C0832D8E7EA82E05C0B82C38
:100BC000A32C03C0B82C01C0B92CA4FE0FC0FE0199
:100BD000E80DF11D8081803321F49A2D997EA92E94
:100BE00009C0A2FE06C0B394B39404C08A2D8678CF
:100BF00009F0B394A3FC11C0A0FE06C0B21488F49F
:100C0000280C922C9B180EC0B21460F4B60180E23E
:100C100090E00E94A308B394F7CFB21418F42B18F5
:100C200002C0982C212CA4FE10C0B60180E390E0F5
:100C30000E94A308A2FE17C0A1FC03C088E790E0B1
:100C400002C088E590E0B6010CC08A2D867859F084
:100C5000A1FE02C08BE201C080E2A7FC8DE2B601DA
:100C600090E00E94A308891438F4B60180E390E074
:100C70000E94A3089A94F7CF8A94F301E80DF11D1E
:100C80008081B60190E00E94A3088110F5CF222058
:100C900009F442CEB60180E290E00E94A3082A94B3
:100CA000F6CFF6018681978102C08FEF9FEF2B96DA
:100CB000E2E10C945909A9E0B0E0E1E6F6E00C9419
:100CC00043096A01122FB02E2BE3201720F0FF24D6
:100CD000F394F00E02C02CE3F22E0F2D27E0AE01AC
:100CE0004F5F5F4F0E94B507BC014981842F897017
:100CF000813031F0E1FC06C0E0FE06C090E205C0A4
:100D00009DE203C09BE201C090E05E2D507143FF65
:100D10003CC0911102C083E001C084E0811718F447
:100D2000212F281B01C020E051110BC0F601822F9A
:100D300030E2882319F031938150FBCFC20ED11CD1
:100D400020E0992329F0D6019C93F60131966F019A
:100D5000C6010396E2FE0AC03EE4D6013C9341E49C
:100D600011964C93119712963C9306C03EE6F601FD
:100D7000308341E641833283FC01322F40E233234A
:100D800009F442C041933150FACF42FF44C091115F
:100D900002C083E001C084E0811718F4212F281BD2
:100DA00001C020E051110BC0F601822F30E28823F0
:100DB00019F031938150FBCFC20ED11C20E0992352
:100DC00029F0D6019C93F60131966F01C601039676
:100DD000E2FE0BC039E4D6013C933EE411963C930D
:100DE000119736E412963C9307C039E6F60130833A
:100DF0003EE6318336E63283FC01322F40E2332374
:100E000019F041933150FBCFFC01E20FF11D10822C
:100E10008EEF9FEFA6C021E030E0911102C020E0EC
:100E200030E0161617061CF4FB01319602C0E1E013
:100E3000F0E02E0F3F1FBB2021F0EB2DF0E03196AC
:100E400002C0E0E0F0E02E0F3F1FE12FF0E02E1790
:100E50003F071CF4121B212F01C020E08E2D88714A
:100E600059F4F601822F30E2882319F03193815032
:100E7000FBCFC20ED11C20E0992329F0D6019C9310
:100E8000F60131966F0151110BC0F601822F90E3EC
:100E9000882319F091938150FBCFC20ED11C20E022
:100EA0000F2D060F9A81342F307144FF03C0913308
:100EB00009F40150101624F4093018F008E001C0BC
:100EC00001E0AB0177FF02C040E050E0FB01E41B12
:100ED000F50BA1E0B0E0AC0FBD1FEA0FFB1F8EE2E7
:100EE000A82E4B01801A91080B2D10E01195019549
:100EF00011094F3FBFEF5B0721F4D601AC92119669
:100F00006D01641775072CF08416950614F4818121
:100F100001C080E3415051093196D60111967D01FF
:100F20004017510724F0D6018C936701E2CF641774
:100F3000750739F4963320F4953319F4311101C053
:100F400081E3F6018083F701822F90E2882319F074
:100F500091938150FBCFF701E20FF11D108280E0E9
:100F600090E02996ECE00C945F09283008F027E027
:100F70003327DA01990F311D87FD916000966105D5
:100F8000710539F432602E5F3D9330E32A95E1F725
:100F900008959F3F30F080387105610509F03C5F8E
:100FA0003C5F3D93913008F08068911DDF93CF93B3
:100FB0001F930F93FF92EF92192F987F9695E92F29
:100FC00096959695E90FFF27EE53FF4F9927332704
:100FD000EE24FF24A701E70105900894079428F464
:100FE000360FE71EF81E491F511D660F771F881F19
:100FF000991F0694A1F70590079428F4E70EF81EB0
:10100000491F561FC11D770F881F991F661F069421
:10101000A1F70590079428F4F80E491F561FC71F23
:10102000D11D880F991F661F771F0694A1F70590A1
:10103000079420F4490F561FC71FD81F990F661F2A
:10104000771F881F0694A9F784911095177041F0B7
:10105000D695C79557954795F794E7941A95C1F794
:10106000E8E6F0E0689415901591359165919591B9
:1010700005907FE27395E118F10A430B560BC90BFB
:10108000D009C0F7E10CF11E431F561FC91FD01D28
:101090007EF4703311F48A95E6CFE894015030F075
:1010A000080F0AF40027021708F4202F2395022FB7
:1010B0007A3328F079E37D932A95E9F710C07D9380
:1010C0002A9589F6069497956795379517951794FD
:1010D000E118F10A430B560BC90BD00998F0239580
:1010E0007E9173957A3308F070E37C932013B8F700
:1010F0007E9170617D9330F0839571E37D9370E311
:101100002A95E1F71124EF90FF900F911F91CF9155
:10111000DF91992787FD90950895FC010590615016
:1011200070400110D8F7809590958E0F9F1F0895FD
:10113000FC016150704001900110D8F780959095A6
:101140008E0F9F1F08950F931F93CF93DF93FB0183
:10115000238121FD03C08FEF9FEF2CC022FF16C01B
:1011600046815781248135814217530744F4A08179
:10117000B1819D012F5F3F4F318320838C93268166
:1011800037812F5F3F4F3783268314C08B01EC01DB
:10119000FB010084F185E02D0995892BE1F6D8014A
:1011A00016968D919C911797019617969C938E9306
:1011B0001697CE01DF91CF911F910F910895FA01FB
:1011C000AA27283051F1203181F1E8946F936E7F86
:1011D0006E5F7F4F8F4F9F4FAF4FB1E03ED0B4E077
:1011E0003CD0670F781F891F9A1FA11D680F791FB8
:1011F0008A1F911DA11D6A0F711D811D911DA11DC9
:1012000020D009F468943F912AE0269F11243019D8
:10121000305D3193DEF6CF010895462F4770405D73
:101220004193B3E00FD0C9F7F6CF462F4F70405D22
:101230004A3318F0495D31FD4052419302D0A9F77D
:10124000EACFB4E0A6959795879577956795BA9577
:10125000C9F700976105710508959B01AC010A2E3D
:1012600006945795479537952795BA95C9F7620F14
:10127000731F841F951FA01D08952F923F924F92B8
:101280005F926F927F928F929F92AF92BF92CF9216
:10129000DF92EF92FF920F931F93CF93DF93CDB71F
:1012A000DEB7CA1BDB0B0FB6F894DEBF0FBECDBF97
:1012B00009942A88398848885F846E847D848C8468
:1012C0009B84AA84B984C884DF80EE80FD800C8171
:1012D0001B81AA81B981CE0FD11D0FB6F894DEBF54
:0C12E0000FBECDBFED010895F894FFCFC4
:1012EC0053313A2573562053323A25752053333AED
:1012FC0025640D0A0053313A2573560053323A25B2
:0C130C002D34750053333A252D36640053
:00000001FF
