S01300004553434C41564F5F30325F2E73726563E4
S11300000C9434000C9446000C9446000C94460066
S11300100C9446000C9446000C9446000C94460044
S11300200C9446000C9446000C9446000C94460034
S11300300C9446000C9446000C9446000C94460024
S11300400C9446000C9446000C9446000C94460014
S11300500C9446000C9446000C9446000C94460004
S11300600C948E000C94460011241FBECFEFD8E0F0
S1130070DEBFCDBF21E0A0E0B1E001C01D92A230FF
S1130080B207E1F70E94C3000C94CF000C94000067
S113009087B18E7F87B988B18E7F88B9089584B17E
S11300A0826084B982E8809380008AE18093810031
S11300B08FE39CE9909387008093860080ED97E01E
S11300C0909389008093880010920001089580ED38
S11300D097E090938900809388001092000108951E
S11300E088EB9BE090938900809388008AE5809355
S11300F000010895309B06C081E0809301010E94B5
S113010070000895109201010E946700089582E131
S11301108093BA0085E48093BC0008951F920F92E7
S11301200FB60F9211248F938091B900887F883B7A
S113013089F018F4883A31F01DC0803C99F0883C6D
S1130140A9F018C0809101018093BB0085EC8093D5
S1130150BC0013C0809100018093BB0085EC8093A8
S1130160BC000BC085EC8093BC0007C085EC809379
S1130170BC0003C085EC8093BC008F910F900FBE30
S11301800F901F9018950E9448000E944F000E94F3
S1130190870078940E947A000E947A00FDCFF89438
S10501A0FFCF8B
S9030000FC
