:100000000C9434000C9446000C9446000C9446006A
:100010000C9446000C9446000C9446000C94460048
:100020000C9446000C9446000C9446000C94460038
:100030000C9446000C9446000C9446000C94460028
:100040000C9446000C9446000C9446000C94460018
:100050000C9446000C9446000C9446000C94460008
:100060000C9446000C94460011241FBECFEFD8E03C
:10007000DEBFCDBF21E0A0E0B1E001C01D92A13004
:10008000B207E1F70E9400010C9476010C94000085
:100090000F931F93CF938B019C01C42F87B18F7C4B
:1000A00087B9443079F018F4413031F023C0403141
:1000B00091F04034C9F01EC0E9EBF0E080818C7F04
:1000C00080831EC0E9EBF0E080818D7F808380819A
:1000D0008160808315C0E9EBF0E080818E7F8083B2
:1000E0008081826080830CC0E9EBF0E080818360D6
:1000F000808306C0E9EBF0E080818C7F8083C1E0E3
:1001000060E074E284EF90E0A90198010E9454013C
:10011000CA01B90160517109810991094C2F50E060
:100120009A01220F331F032E000C440B550B0E9423
:1001300054012093B800ECEBF0E080818460808370
:10014000CF911F910F91089584EA8093BC00809114
:10015000B9008823E4F79091B900987F81E0983046
:1001600009F080E0089584EA8093BC008091B90092
:100170008823E4F79091B900987F81E0903109F0ED
:1001800080E0089584E98093BC008091BC0084FDE8
:10019000FCCF08958093BB0084E88093BC008091DD
:1001A000BC008823E4F78091B900887F883121F072
:1001B000883219F481E0089581E00895FC016623F6
:1001C00021F084EC8093BC0003C084E88093BC00E1
:1001D0009091BC009923E4F79091B900987F662331
:1001E00011F0903549F4611102C0983539F48091CD
:1001F000BB00808381E0089580E0089580E0089549
:100200008AB18C6F8AB984B1836084B984B1806209
:1002100084B985B18F7D85B985B18C7F85B98BB166
:1002200083708BB941E060EA76E881E090E00E945B
:10023000480085B1806285B90E94A400882389F1B5
:1002400080E60E94CA00811103C00E94C20029C03A
:1002500082E50E94CA000E94B300811103C00E947F
:10026000C2001FC081E60E94CA00811103C00E9423
:10027000C20017C060E080E091E00E94DE000E94B2
:10028000C20085B18F7D85B9809100018BB92FEFB8
:1002900083ED90E3215080409040E1F700C00000E2
:1002A000C8CF80E090E00895A1E21A2EAA1BBB1BE4
:1002B000FD010DC0AA1FBB1FEE1FFF1FA217B30732
:1002C000E407F50720F0A21BB30BE40BF50B661F48
:1002D000771F881F991F1A9469F76095709580950C
:1002E00090959B01AC01BD01CF010895F894FFCF1B
:00000001FF
