:100000000C9434000C9451000C9451000C94510049
:100010000C9451000C9451000C9451000C9451001C
:100020000C9451000C9451000C9451000C947901E3
:100030000C9451000C9451000C94E1000C9451006C
:100040000C9451000C9451000C9451000C945100EC
:100050000C9451000C9451000C9451000C945100DC
:100060000C9451000C94510011241FBECFEFD8E026
:10007000DEBFCDBF11E0A0E0B1E0E8E6F4E002C0F1
:1000800005900D92AE30B107D9F721E0AEE0B1E0B6
:1000900001C01D92A831B207E1F70E94BE010C9485
:1000A00032020C9400008A3008F5E82FF0E0ED5F92
:1000B000FE4F908190FD02C080E001C084E091FD80
:1000C000886092FD806193FD806294FD806495FD5F
:1000D00080682BB12370822B8BB996FF04C085B149
:1000E000816085B9089585B18E7F85B908958BB1FA
:1000F00083708BB985B18E7F85B90895482F85307F
:1001000008F044E090E080E00AC021E030E0092EF1
:1001100002C0220F331F0A94E2F7822B9F5F9417CD
:10012000A0F308950E947E0098B1907F892B88B932
:1001300008950E947E0080FF04C098B1906198B934
:1001400003C098B19F7E98B981FF04C098B19062B6
:1001500098B903C098B19F7D98B982FF04C095B14A
:10016000906195B903C095B19F7E95B983FF04C096
:1001700085B1806285B9089585B18F7D85B908956F
:100180008AB18C6F8AB984B1816384B984B1817F6B
:1001900084B985B18E6085B987B18F6387B90E94B4
:1001A000770080E00E94920080E00E94990008950C
:1001B00082E084BD93E095BD99EF97BD80936E007A
:1001C00008951F920F920FB60F9211242F933F9311
:1001D0004F938F939F93EF93FF93CF93DF9300D031
:1001E0001F92CDB7DEB783B186958170898383B1C5
:1001F00082FB882780F98A8383B183FB882780F973
:100200008B8320E055C0822F90E0E1E0F0E0EC0F1E
:10021000FD1FE80FF91F308131110DC0FC01E25FB5
:10022000FE4F3081343198F4FC01E25FFE4F3081A3
:100230003F5F30830CC0FC01E25FFE4F308133230F
:1002400031F0FC01E25FFE4F308131503083FC0120
:10025000E050FF4F3081FC01E25FFE4F40814431AE
:1002600038F4FC01E25FFE4F4081442319F003C0E3
:1002700030E001C031E0311116C0FC01E050FF4F09
:100280004081413081F4211103C0409313010BC020
:10029000213021F441E04093120105C0223019F4CD
:1002A00041E040931101FC01E050FF4F30832F5F8C
:1002B000233008F4A8CF0F900F900F90DF91CF91CB
:1002C000FF91EF919F918F914F913F912F910F90BF
:1002D0000FBE0F901F9018958DE08093810088E0ED
:1002E0009DE3909389008093880082E080936F0063
:1002F00008951F920F920FB60F9211242F933F93E0
:100300004F935F936F937F938F939F93AF93BF931D
:10031000EF93FF93809117018130F9F480911601DA
:10032000882351F0809116018150809316018091AD
:1003300016010E94530011C0109215011092140171
:1003400080E00E94920080E00E94990010921201C9
:100350001092110182E080931701FF91EF91BF91FC
:10036000AF919F918F917F916F915F914F913F914D
:100370002F910F900FBE0F901F9018950E94C000F4
:100380000E94D8000E946C01789480911301882308
:10039000B1F01092130180911701811110C085E016
:1003A00080931601809116010E94530080E00E9404
:1003B000920080E00E94990081E080931701809173
:1003C0001701823029F01092120110921101DDCF35
:1003D000809112018823F9F0109212018091150189
:1003E0008430C8F4809115018F5F8093150180914E
:1003F00015010E94920080911501843061F483E020
:10040000809317018FE00E94920080E00E94990083
:1004100081E00E94530080911101882309F4B5CF37
:100420001092110180911401843008F0AECF8091B8
:1004300014018F5F80931401809114010E94990030
:1004400080911401843009F0A0CF83E080931701DC
:100450008FE00E94990080E00E94920082E00E945A
:08046000530093CFF894FFCF85
:0E0468000101013F065B4F666D7D077F6F004F
:00000001FF
