:100000000C9434000C9446000C9446000C9446006A
:100010000C9446000C9446000C9446000C94460048
:100020000C9446000C9446000C9446000C94460038
:100030000C9446000C9446000C9446000C94460028
:100040000C9446000C9446000C9446000C94460018
:100050000C9446000C9492000C9446000C944600BC
:100060000C94AB000C94460011241FBECFEFD8E0D7
:10007000DEBFCDBF21E0A0E0B1E001C01D92A23003
:10008000B207E1F70E946D000C94F8000C94000098
:1000900097B19F7C97B9880F8093BA0085E48093CD
:1000A000BC000895ECE7F0E01082808180648083DA
:1000B00080818F778083808180628083EAE7F0E0AF
:1000C0001082808180688083808187608083EEE7F2
:1000D000F0E08081836080830895F89484B1806229
:1000E00084B985B18F7D85B90E94520080E30E945A
:1000F0004800789480910101823529F483B18062AF
:1001000083B910920101EAE7F0E080818064808386
:100110002FEF81EE94E0215080409040E1F700C045
:100120000000E8CF1F920F920FB60F9211248F9309
:10013000EF93FF938091790080930001EAE7F0E06C
:10014000808180618083FF91EF918F910F900FBE2E
:100150000F901F9018951F920F920FB60F921124B7
:100160008F93EF93FF938091B9008C7F803A89F150
:1001700058F48037A1F018F4803689F02EC080380A
:1001800091F0803981F029C0883BA9F018F4883AB1
:1001900091F023C0803CB9F0883CA9F01EC085ECEA
:1001A0008093BC001DC08091BB008093010185EC51
:1001B0008093BC0015C0809100018093BB0085EC4A
:1001C0008093BC000DC0ECEBF0E0108285EC8083E6
:1001D00007C085EC8093BC0003C085EC8093BC0015
:1001E000FF91EF918F910F900FBE0F901F90189578
:0401F000F894FFCFB1
:00000001FF
